:100000000C9461000C94D8010C94B1010C947E0006
:100010000C947E000C947E000C947E000C947E0068
:100020000C947E000C947E000C947E000C947E0058
:100030000C947E000C947E000C947E000C947E0048
:100040000C9467010C947E000C947E000C947E004E
:100050000C947E000C947E000C947E000C947E0028
:100060000C947E000C947E00000000002400270009
:100070002A0000000000250028002B0000000000DE
:1000800023002600290004040404040404040202DA
:100090000202020203030303030301020408102007
:1000A0004080010204081020010204081020000012
:1000B0000008000201000003040700000000000027
:1000C000000011241FBECFEFD8E0DEBFCDBF11E08E
:1000D000A0E0B1E0E0EFF5E002C005900D92A4329F
:1000E000B107D9F721E0A4E2B1E001C01D92AF321F
:1000F000B207E1F70E94FF010C94F6020C94000095
:1001000010922E0110922D010895833081F028F471
:10011000813099F08230A9F008958730A9F08830B5
:10012000C9F08430B1F4809180008F7D03C080914C
:1001300080008F7780938000089584B58F7784BD89
:10014000089584B58F7DFBCF8091B0008F77809329
:10015000B00008958091B0008F7DF9CFCF93DF93E9
:10016000282F30E0F901E255FF4F8491F901E6565E
:10017000FF4FD491F901EA57FF4FC491CC23A1F06E
:1001800081110E948500EC2FF0E0EE0FFF1FE45874
:10019000FF4FA591B491EC91ED2381E090E009F43B
:1001A00080E0DF91CF91089580E090E0FACF1F9337
:1001B000CF93DF93282F30E0F901E255FF4F849170
:1001C000F901E656FF4FD491F901EA57FF4FC49168
:1001D000CC23A9F0162F81110E948500EC2FF0E0AE
:1001E000EE0FFF1FEE58FF4FA591B4918FB7F89413
:1001F000EC91111108C0D095DE23DC938FBFDF9105
:10020000CF911F910895DE2BF8CFCF93DF9390E02D
:10021000FC01E656FF4F24918A579F4FFC018491C1
:100220008823C9F090E0880F991FFC01E859FF4F1F
:10023000A591B491FC01EE58FF4FC591D491611185
:100240000DC09FB7F8948C91209582238C93888160
:10025000282328839FBFDF91CF910895623051F406
:100260009FB7F8943C91822F809583238C93E881EB
:100270002E2BEFCF8FB7F894EC912E2B2C938FBFB2
:10028000EACF3FB7F8948091290190912A01A0917B
:100290002B01B0912C0126B5A89B05C02F3F19F06A
:1002A0000196A11DB11D3FBFBA2FA92F982F8827F6
:1002B000BC01CD01620F711D811D911D42E0660FD1
:1002C000771F881F991F4A95D1F7089508951F92A7
:1002D0000F920FB60F9211242F933F938F939F93FA
:1002E000AF93BF938091250190912601A0912701A2
:1002F000B09128013091240123E0230F2D3758F5C8
:100300000196A11DB11D2093240180932501909396
:100310002601A0932701B093280180912901909193
:100320002A01A0912B01B0912C010196A11DB11DB4
:100330008093290190932A01A0932B01B0932C0163
:10034000BF91AF919F918F913F912F910F900FBED1
:100350000F901F90189526E8230F0296A11DB11D3E
:10036000D2CF1F920F920FB60F9211242F933F936B
:100370004F935F936F937F938F939F93AF93BF93AD
:10038000EF93FF93E0910201F09103010995FF9132
:10039000EF91BF91AF919F918F917F916F915F91FD
:1003A0004F913F912F910F900FBE0F901F90189576
:1003B0001F920F920FB60F9211242F933F934F93DA
:1003C0005F936F937F938F939F93AF93BF93EF93BD
:1003D000FF93E0910001F09101010995FF91EF91E8
:1003E000BF91AF919F918F917F916F915F914F914D
:1003F0003F912F910F900FBE0F901F9018957894FA
:1004000084B5826084BD84B5816084BD85B5826019
:1004100085BD85B5816085BD80916E0081608093CA
:100420006E00109281008091810082608093810033
:100430008091810081608093810080918000816043
:10044000809380008091B10084608093B10080919E
:10045000B00081608093B00080917A0084608093C6
:100460007A0080917A00826080937A0080917A008D
:10047000816080937A0080917A00806880937A000E
:100480001092C100C7E061E08C2F0E940501CF5F90
:10049000CE30C9F760E082E00E94050160E086E0AE
:1004A0000E94050162E085E00E94050100E110E084
:1004B0003DE0C32ED12C40E0E42E40E0F42E86E057
:1004C0000E94AE00892B09F460C0C0912D01D0912B
:1004D0002E01CE01B8010E94CE02FC01EE0FFF1FDB
:1004E000EC5FFE4FA080B18027E0822E912CC601E8
:1004F00088199909B50102C0759567958A95E2F743
:100500006170882D0E94D7002FEF821A920A8EE028
:100510008816910461F785E00E94AE00892B71F185
:10052000CE010196B8010E94CE0290932E018093D5
:100530002D010E9441012B013C018CE2882E99245F
:100540009394A12CB12C0E9441016419750986096C
:100550009709683E734081059105A8F321E0821A4E
:100560009108A108B10888EE480E83E0581E611C6E
:10057000711C81149104A104B10429F7E114F10460
:1005800009F49DCF0E9400009ACFC7E060E08C2F55
:100590000E94D700CF5FCE30C9F7F0CF97FB072E70
:1005A00016F4009407D077FD09D00E94E20207FC00
:1005B00005D03EF4909581959F4F08957095619573
:1005C0007F4F0895AA1BBB1B51E107C0AA1FBB1F89
:1005D000A617B70710F0A61BB70B881F991F5A95CF
:1005E000A9F780959095BC01CD010895F894FFCFAF
:1005F000660166013F0006005B004F0066006D006B
:100600007D000700FF006F0077007C0039005E006E
:0406100079007100FC
:00000001FF
